:020000040800F2
:10000000005000202D120008310F0008390F0008A1
:10001000410F0008490F0008510F000800000000C0
:10002000000000000000000000000000590F000860
:10003000650F000800000000710F00087D0F000828
:100040007512000875120008751200087512000874
:100050007512000875120008751200087512000864
:100060007512000875120008751200087512000854
:100070007512000875120008751200087512000844
:100080007512000875120008751200087512000834
:100090007512000875120008751200087512000824
:1000A0007512000875120008751200087512000814
:1000B0007512000875120008751200087512000804
:1000C00075120008751200087512000875120008F4
:1000D00075120008890F00087512000875120008D3
:1000E0007512000875120008751200080000000063
:1000F0000000000000000000000000000000000000
:0C01000000000000000000005FF808F1A3
:10010C0010B5054C237833B9044B13B10448AFF345
:10011C0000800123237010BD10000020000000009F
:10012C00F033000808B5034B1BB103490348AFF388
:10013C00008008BD0000000014000020F03300080F
:10014C00034613F8012B002AFBD1181A013870470B
:10015C0080B59EB000AF03463A60FB710B46BB7195
:10016C00534B7B67BB79013B082B4DD801A252F84E
:10017C0023F000BFA5010008AB010008B101000885
:10018C00B7010008BD010008C3010008C90100083F
:10019C00CF010008D5010008464B7B6735E0464B84
:1001AC007B6732E0454B7B672FE0454B7B672CE050
:1001BC00444B7B6729E0444B7B6726E0434B7B67D2
:1001CC0023E0434B7B6720E03B68013B032B17D8B4
:1001DC0001A252F823F000BFF5010008FB01000852
:1001EC0001020008070200083A4B7B670BE03A4B10
:1001FC007B6708E0394B7B6705E0394B7B6702E096
:10020C00384B7B6700BF00E000BF786FFFF798FFAB
:10021C00034687F87330A5233B72FB797B72BB795D
:10022C00BB7297F87330FB7297F8732007F10803D1
:10023C000433796F184603F0C7F897F8733003331B
:10024C001A4607F1080301331946002000F08AFB17
:10025C000346A7F8703097F873300433B7F8702062
:10026C00D2B278333B4403F8702CB7F870301B0AC9
:10027C009AB297F873300533D2B278333B4403F813
:10028C00702C97F87330063378333B445A2203F8BA
:10029C00702C97F873309BB207339AB207F10803AE
:1002AC001146184600F09CFF00BF7837BD4680BD54
:1002BC00083400080C3400082834000840340008C6
:1002CC006834000890340008B0340008C4340008C6
:1002DC00D8340008F4340008003500081435000840
:1002EC00203500082C35000880B588B000AF786048
:1002FC007B683B610A21386900F054FF0346002BF0
:10030C0003D03B691B78A52B01D0012377E0012397
:10031C00FB610FE03A69FB691344C821184600F0F1
:10032C0041FF0346002B02D14FF0FF3367E0FB691E
:10033C000133FB61FB69032BECD97B685B889BB2B7
:10034C00842B02D94FF0FF3359E00023BB6111E03D
:10035C007A68BB69134404334FF4FA71184600F001
:10036C0021FF0346002B02D14FF0FF3347E0BB695E
:10037C000133BB617B685B889BB21A46BB699342B5
:10038C00E6D300237B6110E007F108027B6913447C
:10039C00C821184600F006FF0346002B02D14FF08F
:1003AC00FF332CE07B6901337B617B69022BEBD93A
:1003BC003B69013303221946002000F0D3FA0346AF
:1003CC0018467B68191D7B685B889BB21A4600F047
:1003DC00C9FA0346FB813B7A1AB27B7A1BB21B0229
:1003EC001BB213431BB2BB81FA89BB899A4204D15D
:1003FC00BB7A5A2B01D1002301E04FF0FF33184692
:10040C002037BD4680BD000080B586B000AFF860D7
:10041C00B9601346FB80BB687B6118220021F86829
:10042C0002F0A6FFFB880C2B0ED17B691B68002BFE
:10043C000AD07B691B68B3F53C4F05D87B691B68F8
:10044C0003F00303002B01D0032326E07B691A6819
:10045C00FB689A607B695A68FB68DA607B699A680A
:10046C00FB681A610F4800F0D9FA0346002B0BD138
:10047C00FB689B6803F2FF339B0A19460A4800F09D
:10048C002BFB0346002B01D0062306E0074B002272
:10049C009A60FB6801221A60002318461837BD4683
:1004AC0080BD00BF0040000800440008006C004004
:1004BC0080B588B000AFF860B9601346FB80BB68AC
:1004CC00FB61FB681B68002B03D0FB685B68002B8F
:1004DC0001D0042349E0FB88072B01D8032344E017
:1004EC00FB88043BBB61FB691B687B61BB6903F048
:1004FC000303002B0BD1FB689B687A699A4206D8E0
:10050C00FB689A687B69D31ABA699A4201D90323AA
:10051C002BE07A69BB691A44FB685B699A4201D18A
:10052C00002322E0FB685B697A699A4201D00523BB
:10053C001BE07B6903F1006303F58843FA69111D25
:10054C00BA69184600F00EFB0346002B01D00723B6
:10055C000BE0FB685A69BB691A44FB685A614FF49B
:10056C000051044801F064FC002318462037BD46B6
:10057C0080BD00BF0010014080B588B000AF78602E
:10058C007B685B68002B01D0002336E07B681B681E
:10059C00002B05D07B685A697B689B689A4201D016
:1005AC0004232AE07B689B681946164800F0A0F9E2
:1005BC0002467B68DB689A4201D008231DE04FF0AD
:1005CC00A533FB60104B3B617B689B687B617B6850
:1005DC00DB68BB617B681B69FB6107F10C030522BF
:1005EC0019460A4800F03DFA0346002B01D00723B8
:1005FC0003E07B6801225A60002318462037BD4671
:10060C0080BD00BF00440008ABEFCDAB004000083C
:10061C0080B582B000AF786000F01AF902467B68B2
:10062C001A607B681B68002B01D0092303E0044B84
:10063C0000229A60002318460837BD4680BD00BFD3
:10064C00006C004080B5ACB000AF07F1080300228D
:10065C001A605A609A60DA601A615A6107F12003D5
:10066C001846FFF741FEC7F8A800D7F8A830012BB1
:10067C006AD0D7F8A830002B05DA0022012100201F
:10068C00FFF766FD61E000237B6097F82130013BAA
:10069C00032B40D801A252F823F000BFB906000882
:1006AC00D3060008ED060008090700087A8C07F14C
:1006BC002003191D07F108031846FFF7A5FE034692
:1006CC0087F8AF302AE07A8C07F12003191D07F167
:1006DC0008031846FFF7ECFE034687F8AF301DE021
:1006EC007B8C002B06D107F108031846FFF744FF5B
:1006FC00034600E0032387F8AF300FE07B8C002B20
:10070C0005D13B1D1846FFF783FF034600E003238A
:10071C0087F8AF3002E0022387F8AF3097F821302A
:10072C007A6897F8AF101846FFF712FD97F821304A
:10073C00042B93D197F8AF30002B8FD1052000F00C
:10074C00F7FD00F045F889E700BF87E780B483B078
:10075C0000AF0346FB7197F90730002B12DBFB79D6
:10076C0003F01F020A4997F907305B09012000FAD0
:10077C0002F2203341F82320BFF34F8F00BFBFF3A9
:10078C006F8F00BF00BF0C37BD4680BC704700BFE9
:10079C0000E100E080B483B000AF0346FB7197F931
:1007AC000730002B0CDBFB7903F01F02074997F98C
:1007BC0007305B09012000FA02F2603341F8232074
:1007CC0000BF0C37BD4680BC704700BF00E100E0A5
:1007DC0080B584B000AF1A4B1B68FB60194B1B68CB
:1007EC00BB60BB687B6072B600BF174BDB68164AF8
:1007FC0023F0E003D360144B5B69134A23F04103ED
:10080C005361114B1B68104B5B682520FFF79EFF53
:10081C002520FFF7BFFF0D4B00221A600B4B002267
:10082C005A600A4B00229A60FB683B603B6883F37A
:10083C00088800BF7B68984700BF1037BD4680BD55
:10084C0000440008044400080038014010E000E0B7
:10085C0080B584B000AF1A4BFB60FB68BB60BB6813
:10086C005B68184A934201D0012324E0164B1B68A5
:10087C007B607B6803F07F43B3F1006F01D00223F0
:10088C0019E0BB689B68002B04D0BB689B68B3F570
:10089C003C4F01D903230EE0BB689B6819460B48FB
:1008AC0000F026F83860BB68DB683A689A4201D0E1
:1008BC00042300E0002318461037BD4680BD00BF5E
:1008CC0000400008ABEFCDAB044400080044000826
:1008DC0080B582B000AF3B1D01221946034800F0E1
:1008EC007BF87B6818460837BD4680BD0040000881
:1008FC0080B487B000AF786039604FF0FF337B6114
:10090C0000233B6121E07A683B6913441B781A464B
:10091C007B6953407B610023FB7310E07B6903F020
:10092C000103002B05D07B695A080D4B53407B61AA
:10093C0002E07B695B087B61FB7B0133FB73FB7B18
:10094C00072BEBD93B6901333B613A693B689A420F
:10095C00D9D37B69DB4318461C37BD4680BC704736
:10096C002083B8ED80B487B000AF0346B9607A60DD
:10097C00FB8126E0BB685A1CBA601B781B021AB2BA
:10098C00B7F90E3053401BB2FB8100237B6115E09D
:10099C00B7F90E30002B0ADAB7F90E305B001BB238
:1009AC0083F4815383F001031BB29BB202E0FB89F9
:1009BC005B009BB2FB817B6901337B617B69072BFD
:1009CC00E6DD7B685A1E7A60002BD3D1FB89184672
:1009DC001C37BD4680BC704780B487B000AFF86050
:1009EC00B9607A60FB683B6100237B610CE07B693A
:1009FC009B003A691A447B699B00B9680B441268E6
:100A0C001A607B6901337B617A697B689A42EED309
:100A1C0000BF00BF1C37BD4680BC704780B588B096
:100A2C0000AF78600023FB607B687B610123BB61B6
:100A3C0000F0D2FE07F1080207F10C03114618462C
:100A4C0000F0B2FF0346FB7700F0ECFEFB7F002BBF
:100A5C0001D1002301E04FF0FF3318462037BD468B
:100A6C0080BDB0B586B000AFF860B9607A6000F0B8
:100A7C00B3FE00237B6124E07B699B00BA681344BE
:100A8C001B6800221C46154622462B46F96802209C
:100A9C0000F032FE0346002B08D1FB681A687B6914
:100AAC009B00B9680B441B689A4204D000F0BAFE54
:100ABC004FF0FF330CE0FB680433FB607B690133C0
:100ACC007B617A697B689A42D6D300F0ABFE002337
:100ADC0018461837BD46B0BD80B588B000AF7860F9
:100AEC0039607B681D4A93420BD37B68C3F30903BF
:100AFC00002B06D13B689A027B681344184A934238
:100B0C0002D94FF0FF3324E007F10C0300221A60E6
:100B1C005A609A60DA607B687B613B68BB6100F06D
:100B2C005BFE07F1080207F10C031146184600F0B2
:100B3C003BFF0346002B0CBF01230023DBB2FB6100
:100B4C0000F070FEFB69002B01D0002301E04FF098
:100B5C00FF3318462037BD4680BD00BF004000085B
:100B6C0000000108B0B586B000AFF860B9607A60DB
:100B7C00FB68304A93420FD3FB6803F00303002B4E
:100B8C000AD17B6803F00303002B05D1FA687B685C
:100B9C001344294A934202D94FF0FF3346E000F048
:100BAC001BFE00237B613AE0BA687B6913441B7817
:100BBC0019467B690133BA6813441B781B0241EA5E
:100BCC0003027B690233B9680B441B781B04134383
:100BDC0019467B690333BA6813441B781B060B4315
:100BEC003B61FA687B69D1183B6900221C461546AB
:100BFC0022462B46022000F07FFD0346002B06D137
:100C0C00FA687B6913441B683A699A4204D000F075
:100C1C0009FE4FF0FF3309E07B6904337B617A698D
:100C2C007B689A42C0D300F0FDFD002318461837AC
:100C3C00BD46B0BD004000080000010880B586B07C
:100C4C0000AF07F1080300221A605A609A60DA605C
:100C5C00214B9B69204A43F0100393611E4B9B6907
:100C6C0003F010037B607B681B4B9B691A4A43F0B3
:100C7C0004039361184B9B6903F004033B603B68CE
:100C8C0000224FF40051154801F0BAF8002202215D
:100C9C00134801F0B5F84FF40053BB600123FB601F
:100CAC0000233B6102237B6107F1080319460B48C3
:100CBC0000F022FF0223BB600123FB6000233B6199
:100CCC0002237B6107F108031946054800F014FF65
:100CDC0000BF1837BD4680BD001002400010014017
:100CEC000008014080B58AB000AF00F0BFFA00F0F8
:100CFC00A5F8FFF7A3FF00F051F900F083FA4B4B76
:100D0C00DB694A4A43F08053D361484BDB6903F0FB
:100D1C008053FB60FB68454BDB69444A43F000633E
:100D2C00D361424BDB6903F00063BB60BB6801F02D
:100D3C0099F83F4B5B684BF2070293420CBF0123BF
:100D4C000023DBB2BB61BB69002B02D0384B002205
:100D5C005A60642000F0ECFA00F0E0FA78617B69EC
:100D6C007B627B693B620023FB61FB1D05211846FE
:100D7C0000F018FA0346002B07D0FB79552B04D151
:100D8C00792000F0FDF9FFF75DFCBB69002B29D140
:100D9C00FB69002B26D100F0C1FA02467B69D31AFD
:100DAC0040F6B83293421DD90123FB61FFF750FD89
:100DBC000346002B16D1FFF78BFD0346002B05D104
:100DCC001B4B00229A60FFF703FD0BE0184B9B684E
:100DDC003B613B69022B05D8154A3B690133936093
:100DEC00FFF7F6FCFB69002B02D1BB69002B0ED080
:100DFC0000F094FA02467B6AD31A502B07D900F004
:100E0C008DFA78624FF400510A4801F011F800F0A5
:100E1C0085FA02463B6AD31AFA2BA6D900F07EFA61
:100E2C0038620221044801F003F89EE700100240EA
:100E3C00006C0040001001400008014080B590B0EB
:100E4C0000AF07F1180328220021184602F090FA8F
:100E5C003B1D00221A605A609A60DA601A61022304
:100E6C00BB610123BB621023FB6200237B6307F190
:100E7C001803184601F002F80346002B01D000F0CD
:100E8C0018F80F237B600023BB600023FB6000235A
:100E9C003B6100237B613B1D0021184601F070FA79
:100EAC000346002B01D000F004F800BF4037BD46CC
:100EBC0080BD80B400AF72B600BF00BFFDE700007C
:100ECC0080B485B000AF154B9B69144A43F0010305
:100EDC009361124B9B6903F00103BB60BB680F4B22
:100EEC00DB690E4A43F08053D3610C4BDB6903F092
:100EFC0080537B607B680A4B5B68FB60FB6823F06C
:100F0C00E063FB60FB6843F00073FB60044AFB6822
:100F1C00536000BF1437BD4680BC704700100240C0
:100F2C000000014080B400AF00BFFDE780B400AF0B
:100F3C0000BFFDE780B400AF00BFFDE780B400AF99
:100F4C0000BFFDE780B400AF00BFFDE780B400AF89
:100F5C0000BFBD4680BC704780B400AF00BFBD462B
:100F6C0080BC704780B400AF00BFBD4680BC7047EA
:100F7C0080B500AF00F0C0F900BF80BD80B500AFF8
:100F8C00024801F08BFC00BF80BD00BF2C0000208C
:100F9C0080B400AF00BFBD4680BC704780B500AFC9
:100FAC00114B124A1A60104B4FF4E1325A600E4B3F
:100FBC0000229A600C4B0022DA600B4B00221A6163
:100FCC00094B0C225A61084B00229A61064B0022F5
:100FDC00DA61054801F062FB0346002B01D0FFF7F4
:100FEC0068FF00BF80BD00BF2C000020003801400E
:100FFC0080B588B000AF786007F1100300221A604A
:10100C005A609A60DA607B681B68204A934239D137
:10101C001F4B9B691E4A43F4804393611C4B9B6995
:10102C0003F48043FB60FB68194B9B69184A43F03F
:10103C0004039361164B9B6903F00403BB60BB680C
:10104C004FF400733B6102237B610323FB6107F1C7
:10105C00100319460F4800F04FFD4FF480633B61BD
:10106C0000237B610023BB6107F11003194609487B
:10107C0000F042FD00220121252000F054FA252029
:10108C0000F06DFA00BF2037BD4680BD003801402E
:10109C00001002400008014080B584B000AF7860B9
:1010AC007B681B68144A934221D1144B1B78DBB22A
:1010BC0001335A4203F03F0302F03F0258BF534240
:1010CC00FB730F4B1B78DBB2FA7B9A420AD00B4BAB
:1010DC001B78DBB21A460B4B19780B4B9954074A09
:1010EC00FB7B137001220749084801F0B2FB00BFDB
:1010FC001037BD4680BD00BF00380140B400002051
:10110C00B5000020B6000020740000202C00002048
:10111C0080B483B000AF786072B600BF154B1B78FB
:10112C00DAB2154B1B78DBB29A4203D162B600BF20
:10113C00002319E00F4B1B78DBB21A460F4B9B5C5C
:10114C00DAB27B681A700B4B1B78DBB201335A4254
:10115C0003F03F0302F03F0258BF5342DAB2054B93
:10116C001A7062B600BF012318460C37BD4680BC0E
:10117C00704700BFB5000020B400002074000020B0
:10118C0080B582B000AF0346FB71F91D64230122C8
:10119C00034801F0D3FA00BF0837BD4680BD00BF3D
:1011AC002C00002080B584B000AF7860396000F06E
:1011BC00B5F8F86009E000F0B1F80246FB68D31A04
:1011CC003A689A4201D8002306E07868FFF7A0FF3E
:1011DC000346002BEFD0012318461037BD4680BDC7
:1011EC0080B582B000AF78600B467B807A88642330
:1011FC007968034801F0A2FA00BF0837BD4680BDEC
:10120C002C00002080B500AF01220349034801F0F7
:10121C0020FB0023184680BDB60000202C000020C7
:10122C00FFF7B6FE0B480C490C4A002302E0D458D9
:10123C00C4500433C4188C42F9D3094A094C002316
:10124C0001E013600432A242FBD302F099F8FFF7DD
:10125C0049FD7047000000200C0000207C35000880
:10126C0010000020E0000020FEE7000080B500AF79
:10127C00084B1B68074A43F010031360032000F06F
:10128C0047F90F2000F008F8FFF71AFE0023184664
:10129C0080BD00BF0020024080B582B000AF7860F6
:1012AC00124B1A68124B1B7819464FF47A73B3FB26
:1012BC00F1F3B2FBF3F3184600F05FF90346002B91
:1012CC0001D001230EE07B680F2B0AD8002279682D
:1012DC004FF0FF3000F027F9064A7B6813600023BB
:1012EC0000E0012318460837BD4680BD00000020F1
:1012FC00080000200400002080B400AF054B1B78D0
:10130C001A46054B1B681344034A136000BFBD46C5
:10131C0080BC704708000020B800002080B400AFEB
:10132C00024B1B681846BD4680BC7047B8000020B5
:10133C0080B584B000AF7860FFF7F0FFB8607B68D1
:10134C00FB60FB68B3F1FF3F05D00A4B1B781A46D4
:10135C00FB681344FB6000BFFFF7E0FF0246BB686D
:10136C00D31AFA689A42F7D800BF00BF1037BD46AF
:10137C0080BD00BF0800002080B485B000AF78604D
:10138C007B6803F00703FB600C4BDB68BB60BA683F
:10139C004FF6FF031340BB60FB681A02BB68134394
:1013AC0043F0BF6343F40033BB60044ABB68D360B3
:1013BC0000BF1437BD4680BC704700BF00ED00E095
:1013CC0080B400AF044BDB681B0A03F0070318461C
:1013DC00BD4680BC704700BF00ED00E080B483B018
:1013EC0000AF0346FB7197F90730002B0BDBFB7941
:1013FC0003F01F02064997F907305B09012000FA38
:10140C0002F241F8232000BF0C37BD4680BC704768
:10141C0000E100E080B483B000AF03463960FB719B
:10142C0097F90730002B0ADB3B68DAB20C4997F9C5
:10143C0007301201D2B20B4483F800230AE03B6858
:10144C00DAB20849FB7903F00F03043B1201D2B264
:10145C000B441A7600BF0C37BD4680BC704700BFEA
:10146C0000E100E000ED00E080B489B000AFF8606E
:10147C00B9607A60FB6803F00703FB61FB69C3F199
:10148C000703042B28BF0423BB61FB690433062B21
:10149C0002D9FB69033B00E000237B614FF0FF3274
:1014AC00BB6902FA03F3DA43BB681A407B699A40C2
:1014BC004FF0FF317B6901FA03F3D9437B680B4092
:1014CC00134318462437BD4680BC704780B582B0A4
:1014DC0000AF78607B68013BB3F1807F01D30123BF
:1014EC000FE00A4A7B68013B53600F214FF0FF303D
:1014FC00FFF790FF054B00229A60044B07221A60FD
:10150C00002318460837BD4680BD00BF10E000E040
:10151C0080B582B000AF78607868FFF72DFF00BF10
:10152C000837BD4680BD80B586B000AF0346B960B4
:10153C007A60FB7300237B61FFF742FF78617A6866
:10154C00B9687869FFF790FF024697F90F3011469A
:10155C001846FFF75FFF00BF1837BD4680BD80B54A
:10156C0082B000AF0346FB7197F907301846FFF7BE
:10157C0035FF00BF0837BD4680BD80B582B000AFD7
:10158C0078607868FFF7A2FF034618460837BD4617
:10159C0080BD80B485B000AF78600023FB737B689E
:1015AC0093F82130DBB2022B08D07B6804229A63BB
:1015BC007B68002283F82020012320E07B681B68D5
:1015CC001A687B681B6822F00E021A607B681B6825
:1015DC001A687B681B6822F001021A607B681A6C1F
:1015EC007B68DB6B012101FA02F25A607B680122F5
:1015FC0083F821207B68002283F82020FB7B18468F
:10160C001437BD4680BC704780B584B000AF78609D
:10161C000023FB737B6893F82130DBB2022B05D0DF
:10162C007B6804229A630123FB7351E07B681B687F
:10163C001A687B681B6822F00E021A607B681B68B4
:10164C001A687B681B6822F001021A607B681B68B1
:10165C00224A934229D07B681B68214A934222D0AC
:10166C007B681B681F4A93421AD07B681B681E4A12
:10167C00934212D07B681B681C4A93420AD07B6849
:10168C001B681B4A934202D14FF480130EE04FF0BB
:10169C0080730BE04FF4803308E04FF4805305E087
:1016AC004FF4807302E0102300E00123114A5360D1
:1016BC007B68012283F821207B68002283F820209C
:1016CC007B685B6B002B03D07B685B6B78689847FF
:1016DC00FB7B18461037BD4680BD00BF080002409A
:1016EC001C000240300002404400024058000240FE
:1016FC006C00024000000240F0B587B000AFF8600B
:10170C00B960C7E900230123FB750023BB750023D7
:10171C007B752F4B1B7E012B01D1022354E02C4BEC
:10172C0001221A764CF2503000F0A8F80346FB75F3
:10173C00FB7D002B44D1FB68012B02D101237B756F
:10174C0007E0FB68022B02D102237B7501E0042326
:10175C007B750023BB752DE0BB7D5A00BB6802EB8B
:10176C00030CBB7D1901D7E90023C1F12006A1F1BF
:10177C00200022FA01F403FA06F6344323FA00F0AF
:10178C00044323FA01F5A3B21946604600F05AF857
:10179C004CF2503000F072F80346FB750D4B1B6990
:1017AC000C4A23F001031361FB7D002B07D1BB7D99
:1017BC000133BB75BA7D7B7D9A42CDD300E000BF6F
:1017CC00034B00221A76FB7D18461C37BD46F0BD34
:1017DC00C00000200020024080B483B000AF002382
:1017EC00FB710D4B1B6903F08003002B0DD00A4BD2
:1017FC000A4A5A60084B0A4A5A60074B1B6903F0A5
:10180C008003002B01D00123FB71FB7918460C37A8
:10181C00BD4680BC704700BF0020024023016745D5
:10182C00AB89EFCD80B400AF054B1B69044A43F084
:10183C008003136100231846BD4680BC704700BF6F
:10184C000020024080B483B000AF78600B467B80F0
:10185C00084B0022DA61084B1B69074A43F001036D
:10186C0013617B687A881A8000BF0C37BD4680BC38
:10187C00704700BFC00000200020024080B584B03B
:10188C0000AF7860FFF74AFDF86010E07B68B3F1B9
:10189C00FF3F0CD07B68002B07D0FFF73FFD0246C3
:1018AC00FB68D31A7A689A4201D2032325E0154BC0
:1018BC00DB6803F00103002BE8D1124BDB6803F06B
:1018CC002003002B02D00F4B2022DA600D4BDB687B
:1018DC0003F01003002B0BD10A4BDB6903F001035F
:1018EC00002B05D1074BDB6803F00403002B03D05E
:1018FC0000F00AF8012300E0002318461037BD461B
:10190C0080BD00BF0020024080B483B000AF002334
:10191C007B60234BDB6803F01003002B09D0214BB9
:10192C00DB6943F002031F4AD3617B6843F0100369
:10193C007B601B4BDB6803F00403002B09D0194BB5
:10194C00DB6943F00103174AD3617B6843F004035E
:10195C007B60134BDB6903F00103002B0BD0114BA5
:10196C00DB6943F004030F4AD3610D4BDB690C4A6E
:10197C0023F00103D3617B6840F20112934206D13C
:10198C00074BDB69064A23F00103D36102E0044AEA
:10199C007B68D36000BF0C37BD4680BC704700BF6E
:1019AC0000200240C000002080B584B000AF7860F9
:1019BC0039600123FB730023BB602F4B1B7E012B73
:1019CC0001D1022353E02C4B01221A767B681B6851
:1019DC00022B16D14CF25030FFF750FF0346002B70
:1019EC0041D1012000F04CF84CF25030FFF746FF8B
:1019FC000346FB73214B1B69204A23F0040313613C
:101A0C0031E04CF25030FFF739FF0346002B2AD15E
:101A1C003B684FF0FF321A607B689B68BB6019E033
:101A2C00B86800F049F84CF25030FFF727FF034636
:101A3C00FB73124B1B69114A23F002031361FB7BEE
:101A4C00002B03D03B68BA681A600CE0BB6803F546
:101A5C008063BB607B68DB689A027B689B6813447D
:101A6C00BA689A42DCD3044B00221A76FB7B1846E8
:101A7C001037BD4680BD00BFC000002000200240D2
:101A8C0080B483B000AF7860094B0022DA61094B57
:101A9C001B69084A43F004031361064B1B69054A92
:101AAC0043F04003136100BF0C37BD4680BC704748
:101ABC00C00000200020024080B483B000AF7860EA
:101ACC000B4B0022DA610B4B1B690A4A43F00203F1
:101ADC001361084A7B685361064B1B69054A43F046
:101AEC004003136100BF0C37BD4680BC704700BF7C
:101AFC00C00000200020024080B48BB000AF7860A2
:101B0C00396000237B6200233B6269E101227B6A1E
:101B1C0002FA03F3FB613B681B68FA691340BB6173
:101B2C00BA69FB699A4240F058813B685B689A4AF3
:101B3C0093425ED0984A934275D8984A934258D0B3
:101B4C00964A93426FD8964A934252D0944A934203
:101B5C0069D8944A93424CD0924A934263D8924AA1
:101B6C00934246D0904A93425DD8122B2AD8122B1E
:101B7C0059D801A252F823F0FF1B0008D91B00080A
:101B8C00EB1B00082D1C0008331C0008331C00083C
:101B9C00331C0008331C0008331C0008331C0008DD
:101BAC00331C0008331C0008331C0008331C0008CD
:101BBC00331C0008331C0008331C0008E11B000810
:101BCC00F51B0008794A934213D02CE03B68DB6884
:101BDC003B6229E03B68DB6804333B6224E03B68F2
:101BEC00DB6808333B621FE03B68DB680C333B620D
:101BFC001AE03B689B68002B02D104233B6213E084
:101C0C003B689B68012B05D108233B627B68FA6912
:101C1C001A6109E008233B627B68FA695A6103E0A8
:101C2C0000233B6200E000BFBB69FF2B01D87B683F
:101C3C0001E07B6804337B61BB69FF2B02D87B6AB4
:101C4C009B0002E07B6A083B9B003B617B691A6846
:101C5C000F213B6901FA03F3DB431A40396A3B69F4
:101C6C0001FA03F31A437B691A603B685B6803F063
:101C7C008053002B00F0B1804D4B9B694C4A43F0D4
:101C8C00010393614A4B9B6903F00103BB60BB6882
:101C9C00484A7B6A9B08023352F82330FB607B6A0C
:101CAC0003F003039B000F2202FA03F3DB43FA68F1
:101CBC001340FB607B68404A934213D07B683F4AD9
:101CCC0093420DD07B683E4A934207D07B683D4AD5
:101CDC00934201D1032306E0042304E0022302E033
:101CEC00012300E000237A6A02F003029200934081
:101CFC00FA681343FB602F497B6A9B080233FA682E
:101D0C0041F823203B685B6803F48013002B06D05A
:101D1C002D4B9A682C49BB6913438B6006E02A4B08
:101D2C009A68BB69DB43284913408B603B685B684E
:101D3C0003F40013002B06D0234BDA682249BB694D
:101D4C001343CB6006E0204BDA68BB69DB431E49CA
:101D5C001340CB603B685B6803F40033002B06D068
:101D6C00194B5A681849BB6913434B6006E0164B74
:101D7C005A68BB69DB43144913404B603B685B6892
:101D8C0003F48033002B21D00F4B1A680E49BB692A
:101D9C0013430B6021E000BF000032100000311033
:101DAC000000221000002110000012100000111081
:101DBC00001002400000014000080140000C0140EE
:101DCC000010014000140140000401400B4B1A6844
:101DDC00BB69DB43094913400B607B6A01337B62AF
:101DEC003B681A687B6A22FA03F3002B7FF48EAEF1
:101DFC0000BF00BF2C37BD4680BC704700040140BB
:101E0C0080B483B000AF78600B467B8013467B7048
:101E1C007B78002B03D07A887B681A6103E07B887F
:101E2C001A047B681A6100BF0C37BD4680BC704732
:101E3C0080B485B000AF78600B467B807B68DB6834
:101E4C00FB607A88FB6813401A04FB68D9437B88D3
:101E5C000B401A437B681A6100BF1437BD4680BC27
:101E6C007047000080B400AF034B01221A6000BF22
:101E7C00BD4680BC704700BF20000E4280B586B0C6
:101E8C0000AF78607B68002B01D1012372E27B6884
:101E9C001B6803F00103002B00F08780924B5B68FA
:101EAC0003F00C03042B0CD08F4B5B6803F00C037A
:101EBC00082B12D18C4B5B6803F48033B3F5803F55
:101ECC000BD1894B1B6803F40033002B6CD07B685F
:101EDC005B68002B68D101234CE27B685B68B3F52F
:101EEC00803F06D1804B1B687F4A43F480331360DC
:101EFC002EE07B685B68002B0CD17B4B1B687A4A0D
:101F0C0023F480331360784B1B68774A23F48023C7
:101F1C0013601DE07B685B68B3F5A02F0CD1724B8E
:101F2C001B68714A43F4802313606F4B1B686E4A25
:101F3C0043F4803313600BE06B4B1B686A4A23F449
:101F4C0080331360684B1B68674A23F4802313604B
:101F5C007B685B68002B13D0FFF7E0F9386108E071
:101F6C00FFF7DCF902463B69D31A642B01D9032332
:101F7C0000E25D4B1B6803F40033002BF0D014E03F
:101F8C00FFF7CCF9386108E0FFF7C8F902463B6966
:101F9C00D31A642B01D90323ECE1534B1B6803F4D4
:101FAC000033002BF0D100E000BF7B681B6803F00E
:101FBC000203002B63D04C4B5B6803F00C03002B2B
:101FCC000BD0494B5B6803F00C03082B1CD1464B20
:101FDC005B6803F48033002B16D1434B1B6803F072
:101FEC000203002B05D07B681B69012B01D0012358
:101FFC00C0E13D4B1B6823F0F8027B685B69DB009A
:10200C00394913430B603AE07B681B69002B20D0E5
:10201C00364B01221A60FFF781F9386108E0FFF7AF
:10202C007DF902463B69D31A022B01D90323A1E1A6
:10203C002D4B1B6803F00203002BF0D02A4B1B68BE
:10204C0023F0F8027B685B69DB00274913430B60C4
:10205C0015E0264B00221A60FFF760F9386108E0A2
:10206C00FFF75CF902463B69D31A022B01D9032313
:10207C0080E11D4B1B6803F00203002BF0D17B6841
:10208C001B6803F00803002B3AD07B689B69002B7C
:10209C0019D0174B01221A60FFF740F9386108E09C
:1020AC00FFF73CF902463B69D31A022B01D90323F3
:1020BC0060E10D4B5B6A03F00203002BF0D00120B2
:1020CC0000F0CEFA1CE00A4B00221A60FFF726F94A
:1020DC0038610FE0FFF722F902463B69D31A022B55
:1020EC0008D9032346E100BF001002400000424221
:1020FC0080044242924B5B6A03F00203002BE9D14D
:10210C007B681B6803F00403002B00F0A6800023FF
:10211C00FB758B4BDB6903F08053002B0DD1884B87
:10212C00DB69874A43F08053D361854BDB6903F04D
:10213C008053BB60BB680123FB75824B1B6803F4A7
:10214C008073002B18D17F4B1B687E4A43F480733D
:10215C001360FFF7E3F8386108E0FFF7DFF8024699
:10216C003B69D31A642B01D9032303E1754B1B681C
:10217C0003F48073002BF0D07B68DB68012B06D155
:10218C006F4B1B6A6E4A43F0010313622DE07B68B0
:10219C00DB68002B0CD16A4B1B6A694A23F00103E4
:1021AC001362674B1B6A664A23F0040313621CE03C
:1021BC007B68DB68052B0CD1614B1B6A604A43F0D2
:1021CC00040313625E4B1B6A5D4A43F00103136206
:1021DC000BE05B4B1B6A5A4A23F001031362584B0A
:1021EC001B6A574A23F0040313627B68DB68002BDD
:1021FC0015D0FFF793F838610AE0FFF78FF8024625
:10220C003B69D31A41F28832934201D90323B1E0DE
:10221C004B4B1B6A03F00203002BEED014E0FFF7CC
:10222C007DF838610AE0FFF779F802463B69D31A6A
:10223C0041F28832934201D903239BE0404B1B6A45
:10224C0003F00203002BEED1FB7D012B05D13C4B9F
:10225C00DB693B4A23F08053D3617B68DB69002B3D
:10226C0000F08780364B5B6803F00C03082B61D0C1
:10227C007B68DB69022B46D1334B00221A60FFF7D7
:10228C004DF8386108E0FFF749F802463B69D31A6C
:10229C00022B01D903236DE0294B1B6803F000735B
:1022AC00002BF0D17B681B6AB3F5803F08D1244B1F
:1022BC005B6823F400327B689B68214913434B60B5
:1022CC001F4B5B6823F474127B68196A7B685B6A2A
:1022DC000B431B4913434B601B4B01221A60FFF746
:1022EC001DF8386108E0FFF719F802463B69D31A6C
:1022FC00022B01D903233DE0114B1B6803F0007343
:10230C00002BF0D035E0104B00221A60FFF706F8D6
:10231C00386108E0FFF702F802463B69D31A022B3A
:10232C0001D9032326E0064B1B6803F00073002B36
:10233C00F0D11EE07B68DB69012B07D1012319E08A
:10234C000010024000700040600042420B4B5B6882
:10235C00FB60FB6803F480327B681B6A9A4206D1EF
:10236C00FB6803F470127B685B6A9A4201D001230C
:10237C0000E0002318461837BD4680BD001002400F
:10238C0080B584B000AF786039607B68002B01D1D8
:10239C000123D0E06A4B1B6803F007033A689A42AA
:1023AC0010D9674B1B6823F0070265493B68134340
:1023BC000B60634B1B6803F007033A689A4201D029
:1023CC000123B8E07B681B6803F00203002B20D0CC
:1023DC007B681B6803F00403002B05D0594B5B682A
:1023EC00584A43F4E06353607B681B6803F00803AE
:1023FC00002B05D0534B5B68524A43F46053536037
:10240C00504B5B6823F0F0027B689B684D4913438B
:10241C004B607B681B6803F00103002B40D07B688A
:10242C005B68012B07D1474B1B6803F40033002B6F
:10243C0015D101237FE07B685B68022B07D1414BF0
:10244C001B6803F00073002B09D1012373E03D4B93
:10245C001B6803F00203002B01D101236BE0394B05
:10246C005B6823F003027B685B68364913434B605F
:10247C00FEF754FFF8600AE0FEF750FF0246FB68D7
:10248C00D31A41F28832934201D9032353E02D4BE6
:10249C005B6803F00C027B685B689B009A42EBD193
:1024AC00274B1B6803F007033A689A4210D2244B5F
:1024BC001B6823F0070222493B6813430B60204B37
:1024CC001B6803F007033A689A4201D0012332E0FB
:1024DC007B681B6803F00403002B08D0194B5B6866
:1024EC0023F4E0627B68DB68164913434B607B681E
:1024FC001B6803F00803002B09D0124B5B6823F414
:10250C0060527B681B69DB000E4913434B6000F083
:10251C0021F802460B4B5B681B0903F00F030A49B9
:10252C00CB5C22FA03F3094A1360094B1B6818466B
:10253C00FEF7B2FE002318461037BD4680BD00BF23
:10254C00002002400010024040350008000000202E
:10255C000400002080B487B000AF0023FB60002390
:10256C00BB6000237B6100237B6000233B611E4B1F
:10257C005B68FB60FB6803F00C03042B02D0082B98
:10258C0003D027E0194B3B6127E0FB689B0C03F061
:10259C000F03174AD35C7B60FB6803F48033002B7A
:1025AC0010D0114B5B685B0C03F00103114AD35C38
:1025BC00BB607B680D4A03FB02F2BB68B2FBF3F312
:1025CC007B6104E07B680C4A02FB03F37B617B6953
:1025DC003B6102E0054B3B6100BF3B6918461C3771
:1025EC00BD4680BC704700BF0010024000127A004C
:1025FC00583500086835000800093D0080B400AF6C
:10260C00024B1B681846BD4680BC7047000000207A
:10261C0080B500AFFFF7F2FF0246054B5B681B0A63
:10262C0003F007030349CB5C22FA03F3184680BD81
:10263C00001002405035000880B500AFFFF7DEFFF8
:10264C000246054B5B68DB0A03F007030349CB5CCE
:10265C0022FA03F3184680BD0010024050350008E2
:10266C0080B485B000AF78600A4B1B680A4AA2FBA5
:10267C0003235B0A7A6802FB03F3FB6000BFFB6871
:10268C005A1EFA60002BF9D100BF00BF1437BD46AB
:10269C0080BC704700000020D34D621080B582B022
:1026AC0000AF78607B68002B01D1012342E07B688E
:1026BC0093F84130DBB2002B06D17B68002283F803
:1026CC0040207868FEF794FC7B68242283F8412034
:1026DC007B681B68DA687B681B6822F40052DA603E
:1026EC00786800F0B7FD7B681B681A697B681B680B
:1026FC0022F490421A617B681B685A697B681B68DC
:10270C0022F02A025A617B681B68DA687B681B68B6
:10271C0042F40052DA607B6800225A647B68202203
:10272C0083F841207B68202283F842207B680022BA
:10273C005A63002318460837BD4680BD80B58AB061
:10274C0002AFF860B9603B601346FB8000237B61ED
:10275C00FB6893F84130DBB2202B75D1BB68002BA2
:10276C0002D0FB88002B01D101236EE0FB68002214
:10277C005A64FB68212283F84120FEF7CFFD786173
:10278C00FB68FA889A84FB68FA88DA84FB689B6891
:10279C00B3F5805F08D1FB681B69002B04D10023C3
:1027AC00FB61BB68BB6103E0BB68FB610023BB61E1
:1027BC002EE03B6800937B6900228021F86800F0D2
:1027CC001CFB0346002B05D0FB68202283F841201C
:1027DC0003233AE0FB69002B0BD1BB691B881A461B
:1027EC00FB681B68C2F308025A60BB690233BB6109
:1027FC0007E0FB691A78FB681B685A60FB690133B8
:10280C00FB61FB68DB8C9BB2013B9AB2FB68DA8400
:10281C00FB68DB8C9BB2002BCBD13B6800937B69B4
:10282C0000224021F86800F0E8FA0346002B05D09E
:10283C00FB68202283F84120032306E0FB6820225A
:10284C0083F84120002300E0022318462037BD46C0
:10285C0080BD80B584B000AFF860B9601346FB80D2
:10286C00FB6893F84230DBB2202B12D1BB68002BF3
:10287C0002D0FB88002B01D101230BE0FB68002266
:10288C001A63FB881A46B968F86800F00FFB034618
:10289C0000E0022318461037BD4680BD80B5BAB0A3
:1028AC0000AF78607B681B681B68C7F8E4307B68F6
:1028BC001B68DB68C7F8E0307B681B685B69C7F88E
:1028CC00DC300023C7F8D8300023C7F8D430D7F851
:1028DC00E43003F00F03C7F8D830D7F8D830002B0A
:1028EC000FD1D7F8E43003F02003002B09D0D7F830
:1028FC00E03003F02003002B03D0786800F0ECFBF1
:10290C005BE2D7F8D830002B00F0DE80D7F8DC3053
:10291C0003F00103002B06D1D7F8E03003F49073D9
:10292C00002B00F0D180D7F8E43003F00103002B2A
:10293C000BD0D7F8E03003F48073002B05D07B6804
:10294C005B6C43F001027B685A64D7F8E43003F007
:10295C000403002B0BD0D7F8DC3003F00103002B61
:10296C0005D07B685B6C43F002027B685A64D7F835
:10297C00E43003F00203002B0BD0D7F8DC3003F06B
:10298C000103002B05D07B685B6C43F004027B6871
:10299C005A64D7F8E43003F00803002B11D0D7F8B1
:1029AC00E03003F02003002B05D1D7F8DC3003F026
:1029BC000103002B05D07B685B6C43F008027B683D
:1029CC005A647B685B6C002B00F0F281D7F8E43022
:1029DC0003F02003002B08D0D7F8E03003F02003DD
:1029EC00002B02D0786800F077FB7B681B685B6972
:1029FC0003F04003002B14BF01230023DBB2C7F804
:102A0C00D4307B685B6C03F00803002B03D1D7F840
:102A1C00D430002B4FD0786800F081FA7B681B68AB
:102A2C005B6903F04003002B41D07B681B681433B7
:102A3C00C7F89C30D7F89C3053E8003FC7F8983063
:102A4C00D7F8983023F04003C7F8D0307B681B6868
:102A5C001433D7F8D020C7F8A820C7F8A430D7F87B
:102A6C00A410D7F8A82041E80023C7F8A030D7F865
:102A7C00A030002BD9D17B68DB6B002B13D07B688B
:102A8C00DB6B7E4A5A637B68DB6B1846FEF7BCFD3A
:102A9C000346002B16D07B68DB6B5B6B7A68D26BC2
:102AAC00104698470EE0786800F093F90AE07868D1
:102ABC0000F08FF906E0786800F08BF97B68002253
:102ACC005A6475E100BF73E17B681B6B012B40F00E
:102ADC004F81D7F8E43003F01003002B00F048814D
:102AEC00D7F8E03003F01003002B00F041810023F5
:102AFC00BB607B681B681B68BB607B681B685B6882
:102B0C00BB60BB687B681B685B6903F04003002BF0
:102B1C0000F0B6807B68DB6B1B685B68A7F8BE3087
:102B2C00B7F8BE30002B00F045817B689B8DB7F861
:102B3C00BE209A4280F03E817B68B7F8BE20DA85D1
:102B4C007B68DB6B9B69202B00F088807B681B68A3
:102B5C000C33C7F88830D7F8883053E8003FC7F8F3
:102B6C008430D7F8843023F48073C7F8B8307B688E
:102B7C001B680C33D7F8B820C7F89420C7F89030EE
:102B8C00D7F89010D7F8942041E80023C7F88C3080
:102B9C00D7F88C30002BD9D17B681B6814337B673A
:102BAC007B6F53E8003F3B673B6F23F00103C7F893
:102BBC00B4307B681B681433D7F8B420C7F8802076
:102BCC00FB67F96FD7F8802041E80023BB67BB6F28
:102BDC00002BE1D17B681B6814333B663B6E53E8DA
:102BEC00003FFB65FB6D23F04003C7F8B0307B68FA
:102BFC001B681433D7F8B020FA66BB66B96EFA6E50
:102C0C0041E800237B667B6E002BE3D17B6820229E
:102C1C0083F842207B6800221A637B681B680C33A4
:102C2C00FB64FB6C53E8003FBB64BB6C23F01003EC
:102C3C00C7F8AC307B681B680C33D7F8AC20BA658E
:102C4C007B65796DBA6D41E800233B653B6D002BCC
:102C5C00E3D17B68DB6B1846FEF79BFC7B6802229A
:102C6C005A637B689A8D7B68DB8D9BB2D31A9BB2BF
:102C7C001946786800F0B6F89CE000BFEF2F00080A
:102C8C007B689A8D7B68DB8D9BB2D31AA7F8CE300C
:102C9C007B68DB8D9BB2002B00F08E80B7F8CE30BA
:102CAC00002B00F089807B681B680C33BB63BB6B0B
:102CBC0053E8003F7B637B6B23F49073C7F8C830F9
:102CCC007B681B680C33D7F8C8207A643B64396C7A
:102CDC007A6C41E80023FB63FB6B002BE3D17B6830
:102CEC001B6814337B627B6A53E8003F3B623B6A90
:102CFC0023F00103C7F8C4307B681B681433D7F882
:102D0C00C4203A63FB62F96A3A6B41E80023BB6268
:102D1C00BB6A002BE3D17B68202283F842207B68BE
:102D2C0000221A637B681B680C333B613B6953E8D8
:102D3C00003FFB60FB6823F01003C7F8C0307B68D2
:102D4C001B680C33D7F8C020FA61BB61B969FA690A
:102D5C0041E800237B617B69002BE3D17B68022275
:102D6C005A63B7F8CE301946786800F03BF823E088
:102D7C00D7F8E43003F08003002B09D0D7F8E0300B
:102D8C0003F08003002B03D0786800F03EF914E0C8
:102D9C00D7F8E43003F04003002B0ED0D7F8E03026
:102DAC0003F04003002B08D0786800F07DF904E0B4
:102DBC0000BF02E000BF00E000BFE837BD4680BDA9
:102DCC0080B483B000AF786000BF0C37BD4680BCC8
:102DDC00704780B483B000AF786000BF0C37BD463D
:102DEC0080BC704780B483B000AF78600B467B80AA
:102DFC0000BF0C37BD4680BC704780B586B000AFB5
:102E0C00F860B9603B601346FB713BE03B6AB3F181
:102E1C00FF3F37D0FEF782FA02463B68D31A3A6A74
:102E2C009A4202D33B6A002B01D103233AE0FB68A0
:102E3C001B68DB6803F00403002B23D0BB68802BDA
:102E4C0020D0BB68402B1DD0FB681B681B6803F0AF
:102E5C000803082B16D100237B61FB681B681B68D9
:102E6C007B61FB681B685B687B617B69F86800F0C1
:102E7C0056F8FB6808225A64FB68002283F840204D
:102E8C0001230FE0FB681B681A68BB681340BA6823
:102E9C009A420CBF01230023DBB21A46FB799A42FB
:102EAC00B4D0002318461837BD4680BD80B485B019
:102EBC0000AFF860B9601346FB80FB68BA689A6291
:102ECC00FB68FA889A85FB68FA88DA85FB68002229
:102EDC005A64FB68222283F84220FB681B69002B92
:102EEC0007D0FB681B68DA68FB681B6842F48072C9
:102EFC00DA60FB681B685A69FB681B6842F00102C8
:102F0C005A61FB681B68DA68FB681B6842F0200298
:102F1C00DA60002318461437BD4680BC704780B475
:102F2C0095B000AF78607B681B680C337B637B6B60
:102F3C0053E8003F3B633B6B23F49073FB647B686B
:102F4C001B680C33FA6C3A64FB63F96B3A6C41E81E
:102F5C000023BB63BB6B002BE5D17B681B68143370
:102F6C003B623B6A53E8003FFB61FB6923F00103C2
:102F7C00BB647B681B681433BA6CFA62BB62B96AB7
:102F8C00FA6A41E800237B627B6A002BE5D17B68FF
:102F9C001B6B012B19D17B681B680C33FB60FB6826
:102FAC0053E8003FBB60BB6823F010037B647B6875
:102FBC001B680C337A6CBA617B617969BA6941E838
:102FCC0000233B613B69002BE5D17B68202283F811
:102FDC0042207B6800221A6300BF5437BD4680BC78
:102FEC00704780B584B000AF78607B685B6AFB602B
:102FFC00FB680022DA85FB680022DA84F868FFF7A8
:10300C00E8FE00BF1037BD4680BD80B485B000AF70
:10301C0078607B6893F84130DBB2212B3ED17B6822
:10302C009B68B3F5805F14D17B681B69002B10D1B2
:10303C007B681B6AFB60FB681B881A467B681B68F5
:10304C00C2F308025A607B681B6A9A1C7B681A627E
:10305C0008E07B681B6A591C7A6811621A787B68D5
:10306C001B685A607B68DB8C9BB2013B9BB27A6815
:10307C001946D184002B0FD17B681B68DA687B68FA
:10308C001B6822F08002DA607B681B68DA687B6858
:10309C001B6842F04002DA60002300E0022318466D
:1030AC001437BD4680BC704780B582B000AF7860E5
:1030BC007B681B68DA687B681B6822F04002DA6068
:1030CC007B68202283F841207868FFF779FE002383
:1030DC0018460837BD4680BD80B58CB000AF78600F
:1030EC007B6893F84230DBB2222B40F0AE807B68D9
:1030FC009B68B3F5805F17D17B681B69002B13D1DC
:10310C000023FB627B689B6ABB627B681B685B6805
:10311C009BB2C3F308039AB2BB6A1A807B689B6AA2
:10312C009A1C7B689A6226E07B689B6AFB62002390
:10313C00BB627B689B68B3F5805F07D07B689B683C
:10314C00002B0AD17B681B69002B06D17B681B689E
:10315C005B68DAB2FB6A1A7008E07B681B685B6814
:10316C00DBB203F07F03DAB2FB6A1A707B689B6AEE
:10317C005A1C7B689A627B68DB8D9BB2013B9BB2CD
:10318C007A681946D185002B5DD17B681B68DA689B
:10319C007B681B6822F02002DA607B681B68DA68A7
:1031AC007B681B6822F48072DA607B681B685A6942
:1031BC007B681B6822F001025A617B68202283F82D
:1031CC0042207B6800225A637B681B6B012B35D134
:1031DC007B6800221A637B681B680C337B617B69FC
:1031EC0053E8003F3B613B6923F010037B627B6833
:1031FC001B680C337A6A3A62FB61F9693A6A41E8F6
:10320C000023BB61BB69002BE5D17B681B681B6885
:10321C0003F01003102B0AD10023FB607B681B68A2
:10322C001B68FB607B681B685B68FB60FB687B68EA
:10323C009B8D19467868FFF7D5FD02E07868FDF79D
:10324C002BFF002302E0002300E002231846303756
:10325C00BD4680BD80B584B000AF78607B681B68CC
:10326C001B6923F440517B68DA687B681B680A434E
:10327C001A617B689A687B681B691A437B685B6977
:10328C001343BB607B681B68DB6823F4B05323F0EB
:10329C000C037A681268B9680B43D3607B681B68AF
:1032AC005B6923F440717B689A697B681B680A43ED
:1032BC005A617B681B682C4A934203D1FFF7BCF917
:1032CC00F86002E0FFF7A4F9F860FA6813469B0077
:1032DC0013449A001A447B685B689B00B2FBF3F3BF
:1032EC00224AA2FB03235B091901FA6813469B00CF
:1032FC0013449A001A447B685B689B00B2FBF3F2A0
:10330C001A4BA3FB02035B09642000FB03F3D31AE3
:10331C001B013233154AA2FB03235B0903F0F003B4
:10332C001944FA6813469B0013449A001A447B68AC
:10333C005B689B00B2FBF3F20C4BA3FB02035B0933
:10334C00642000FB03F3D31A1B013233074AA2FBA0
:10335C0003235B0903F00F027B681B680A449A6025
:10336C0000BF1037BD4680BD003801401F85EB51B2
:10337C0003460244934200D1704703F8011BF9E75E
:10338C0070B500260C4D0D4C641BA410A64209D13F
:10339C0000F028F800260A4D0A4C641BA410A64223
:1033AC0005D170BD55F8043B98470136EEE755F84A
:1033BC00043B98470136F2E7743500087435000871
:1033CC0074350008783500080A44914200F1FF3347
:1033DC0000D1704710B511F8014B914203F8014F21
:1033EC00F9D110BDF8B500BFF8BC08BC9E467047BB
:0C33FC00F8B500BFF8BC08BC9E46704746
:10340800000000004C6F69206672616D652C2043D6
:103418005243313620686F616320454F46000000F3
:103428004C656E68206B686F6E672064756F6320EB
:10343800686F2074726F00005468616D20736F208C
:10344800686F6163206B696368207468756F6320B7
:103458006B686F6E6720686F70206C6500000000F5
:103468004C656E68206B686F6E672064756E6720A8
:103478007472616E67207468616920706869656E2E
:10348800206E6170000000004F66667365742064EA
:1034980075206C696575206B686F6E67206C69654F
:1034A8006E20746965700000586F6120466C617306
:1034B8006820746861742062616900004768692047
:1034C800466C6173682074686174206261690000E9
:1034D8004352433332206669726D77617265206B9F
:1034E800686F6E67206B686F700000004D41474938
:1034F80043204552524F5200524553455420564599
:1035080043544F52204552524F52000053495A4596
:10351800204552524F520000435243204552524FC9
:10352800520000004150504C49434154494F4E20ED
:103538004552524F520000000000000000000000F9
:103548000102030406070809000000000102030441
:1035580002030405060708090A0B0C0D0E0F1010CC
:04356800010200005C
:08356C00E0CBFF7F010000002D
:043574003101000819
:043578000D01000839
:0C357C0000127A001000000001000000A6
:040000050800122DB0
:00000001FF
